S01D00002E2F44656275672F67726170686963646973706C61792E73313990
S315200000000248854600F0BEFBFEE7C04600C0012040
S3152000001080B500AFC046BD4680BD80B500AFFFF7B6
S31520000020F7FFFFF7F5FFC046BD4680BD80B584B01B
S3152000003000AF78600023FB600DE00023BB6004E086
S31520000040FFF7E6FFBB680133BB60BB68032BF7DD18
S31520000050FB680133FB60FB687A689A42EDD8C0469C
S31520000060BD4604B080BD80B584B000AF78607A68A4
S3152000007013005B019B1A9B009B18DB00FB60FB684F
S315200000801800FFF7D3FFC046BD4604B080BD80B53B
S3152000009082B000AF0200FB1D1A70094B1B78DBB241
S315200000A05AB2FB1D1B785BB204218B435BB2134310
S315200000B05AB2034BD2B21A70C046BD4602B080BDBA
S315200000C01410024080B582B000AF0200FB1D1A70EA
S315200000D0084B1B78DBB2FA1D1278D243D2B21340FA
S315200000E0DBB2044A04218B43DBB21370C046BD4603
S315200000F002B080BD1410024080B582B000AF02006D
S31520000100FB1D1A70FB1D1B78082B0CD002DC002B64
S3152000011005D019E0102B0DD0182B12D014E0182082
S31520000120FFF7D0FF13E00820FFF7B1FF1020FFF7FD
S31520000130C9FF0CE01020FFF7AAFF0820FFF7C2FF37
S3152000014005E01820FFF7A3FF1820FFF7BBFFC046E6
S31520000150BD4602B080BD80B500AF4020FFF7B2FF9C
S31520000160124B134A1A600120FFF7ACFF0220FFF75B
S315200001708EFFFFF752FF09E04020FFF788FFFFF7C9
S315200001804CFF4020FFF79EFFFFF747FF094B1B78E8
S31520000190DBB25BB2002BEFDB4020FFF778FF034B8F
S315200001A0054A1A60C046BD4680BDC04600100240C2
S315200001B055550000111002405555555580B584B04F
S315200001C000AF0200FB1D1A704020FFF77BFF1D4B7E
S315200001D01D4A1A600120FFF75AFF0220FFF757FF3A
S315200001E0FB1D1B781800FFF787FFFFF716FF40203F
S315200001F0FFF74DFFFFF711FF144A0F23FB18127864
S315200002001A704020FFF75EFF0E4B114A1A60FB1D45
S315200002101B78082B05D10820FFF76EFFFFF79BFF01
S3152000022008E0FB1D1B78102B04D11020FFF764FF7C
S31520000230FFF791FF0F23FB181B781800BD4604B06B
S3152000024080BDC046001002405555000011100240E6
S315200002505555555580B582B000AF0200FB1D1A706A
S31520000260BB1D0A1C1A701A4AFB1D1B781370BB1D76
S315200002701B781800FFF740FFFFF7CFFE4020FFF75F
S3152000028006FFFFF7CAFE4020FFF71CFFBB1D1B78A9
S315200002900822134005D00820FFF72EFFFFF75BFF4B
S315200002A009E0BB1D1B781022134004D01020FFF755
S315200002B023FFFFF750FF064B00221A704020FFF75E
S315200002C0E6FE0020FFF718FFC046BD4602B080BDFF
S315200002D01510024080B582B000AF0200FB1D1A70D7
S315200002E0BB1D0A1C1A704020FFF7ECFEBB1D1B78B5
S315200002F01800FFF701FF0120FFF7E4FE0220FFF7B9
S31520000300E1FEBB1D1A78FB1D1B7811001800FFF7B4
S31520000310A1FFC046BD4602B080BD80B582B000AF09
S315200003200200FB1D1A70BB1D0A1C1A704020FFF725
S31520000330C9FEBB1D1B781800FFF7DEFE0120FFF764
S31520000340A6FE0220FFF7BEFEBB1D1A78FB1D1B78FA
S3152000035011001800FFF77EFFC046BD4602B080BDE3
S3152000036080B582B000AF0200FB1D1A70FB1D1B7802
S315200003701800FFF723FFFB1D1B781800FFF71EFF51
S3152000038003001800BD4602B080BD80B500AF034B08
S31520000390034A1A60C046BD4680BDC04600100240D2
S315200003A05555555580B500AF4020FFF770FE0A2001
S315200003B0FFF73CFE7820FFF785FE2020FFF767FE3B
S315200003C018213E20FFF786FF18213F20FFF782FFE6
S315200003D01821C020FFF77EFF18214020FFF77AFF63
S315200003E01821B820FFF776FF0020FFF785FEC046CC
S315200003F0BD4680BD80B582B000AF00237B601EE085
S315200004007B685BB24822524213435BB2DBB21821AF
S315200004101800FFF75FFF18214020FFF75BFF00233E
S315200004203B6006E018210020FFF777FF3B68013389
S315200004303B603B683F2BF5DD7B6801337B607B6847
S31520000440072BDDDDC046BD4602B080BDF0B585B0C8
S3152000045000AF040008001100FB1D221C1A70BB1DF2
S31520000460021C1A707B1D0A1C1A70FB1D1B78002BA0
S3152000047000D1CBE0FB1D1B78802B00D9C6E0BB1D2D
S315200004801B78002B00D1C1E0BB1D1B78402B00D967
S31520000490BCE07B1D1B78012B00D9B7E0BB1D1B7868
S315200004A0013B002B00DA0733DB101A000C23FB1864
S315200004B01A70BB1D1B78013B564A134004D5013BDD
S315200004C00822524213430133072B2CD89A00524B51
S315200004D0D3181B689F460F23FB1801221A7022E0AF
S315200004E00F23FB1802221A701DE00F23FB1804228B
S315200004F01A7018E00F23FB1808221A7013E00F2336
S31520000500FB1810221A700EE00F23FB1820221A70F7
S3152000051009E00F23FB1840221A7004E00F23FB1872
S3152000052080221A70C0467B1D1B78002B05D10F2216
S31520000530BB18BA181278D2431A70FB1D1B78402BB1
S315200005400AD90E23FB1810221A700D23FB18FA1D48
S315200005501278413A1A7009E00E23FB1808221A7005
S315200005600D23FB18FA1D1278013A1A700D26BB19B5
S315200005701B7840221343DAB20E257B191B7819000B
S315200005801000FFF7A7FE0C23FB181B7848225242C7
S315200005901343DAB27B191B7819001000FFF79AFE75
S315200005A00B23FC187B191B781800FFF7D9FE0300D4
S315200005B02370BB191B7840221343DAB27B191B78B0
S315200005C019001000FFF786FE7B1D1B78012B09D131
S315200005D00F22BB18B9180B22BA18097812780A43C9
S315200005E01A7008E00F22BB18BA180B217918127856
S315200005F009780A401A700E23FB181A780F23FB1865
S315200006001B7811001800FFF788FE00E0C046BD46A3
S3152000061005B0F0BD070000807008002080B584B0CA
S3152000062000AFF860B9607A60FB68BA685A60FB6808
S315200006307A689A60C046BD4604B080BD80B584B055
S3152000064000AF78600023FB6020E07B68DB68DAB2CD
S315200006507B681968FB6804335B00CB1804331B786E
S31520000660D318D8B27B681B69DAB27B681968FB6835
S3152000067004335B00CB1805331B78D318DBB2012279
S315200006801900FFF7E3FEFB680133FB607B681B68FC
S315200006901B68FA689A42D8DBC046BD4604B080BDC6
S315200006A080B584B000AF78600023FB6020E07B68D3
S315200006B0DB68DAB27B681968FB6804335B00CB1809
S315200006C004331B78D318D8B27B681B69DAB27B68EF
S315200006D01968FB6804335B00CB1805331B78D318E5
S315200006E0DBB200221900FFF7B1FEFB680133FB6085
S315200006F07B681B681B68FA689A42D8DBC046BD46F1
S3152000070004B080BD80B582B000AF78607B681800E9
S31520000710FFF7C6FF7B68DA687B685B68D2187B6860
S31520000720DA607B681A697B689B68D2187B681A61D5
S315200007307B68DB68002B07DD7B68DA687B681B68D3
S315200007405B68D318802B04DD7B685B685A427B6824
S315200007505A607B681B69002B07DD7B681A697B68FA
S315200007601B689B68D318402B04DD7B689B685A4224
S315200007707B689A607B681800FFF760FFC046BD461D
S3152000078002B080BD80B584B000AFFFF7FEFDFFF755
S3152000079009FE18214A20FFF79DFD1821B920FFF7F1
S315200007A099FD1821FF20FFF7B8FD0023FB6009E023
S315200007B0FB68DBB201220A211800FFF747FEFB681F
S315200007C00133FB60FB687F2BF2DD0023BB6009E071
S315200007D0BB68DBB2012219000A20FFF737FEBB688F
S315200007E00133BB60BB683F2BF2DDFA235B001800A8
S315200007F0FFF739FC00237B6009E07B68DBB200222F
S315200008000A211800FFF722FE7B6801337B607B6894
S315200008107F2BF2DD00233B6009E03B68DBB2002240
S3152000082019000A20FFF712FE3B6801333B603B6844
S315200008303F2BF2DDC046BD4604B080BD0C00000053
S315200008400400000004000000000100020100010174
S315200008500102010302000201020202030302000058
S315200008600000000000000000000000000000000062
S31520000870D6040020E0040020EA040020F40400202E
S31520000880FE04002008050020120500201C0500207B
S70520000000DA
