S01B00002E2F44656275672F6173636969646973706C61792E73313967
S315200000000248854600F0C5F9FEE7C04600C001203B
S3152000001080B500AF0C4B00221A600C4B29221A60C7
S315200000200B4B00221A60084B05221A60C046064B6D
S315200000301A6880235B021340F9D0034B00221A6012
S31520000040C046BD4680BDC04610E000E014E000E09A
S3152000005018E000E080B582B000AF786007E0FFF7D7
S31520000060D7FFFFF7D5FFFFF7D3FFFFF7D1FF7B6859
S315200000705A1E7A60002BF2D1C046BD4602B080BD22
S3152000008080B582B000AF786004E0FA239B001800A8
S31520000090FFF7E0FF7B685A1E7A60002BF5D1C04639
S315200000A0BD4602B080BDC04680B584B000AF020018
S315200000B0FB1D1A700C4A0F217B1812781A70FA1D34
S315200000C07B1812781B781343DAB208007B180421B8
S315200000D00A431A70044A01007B181B781370C04625
S315200000E0BD4604B080BDC0461410024080B584B021
S315200000F000AF0200FB1D1A700D4A0F217B181278E3
S315200001001A70FB1D1B785BB2DB435BB204221343E0
S315200001105BB27A18127852B213405AB27B181A7010
S31520000120034A7B181B781370C046BD4604B080BDB9
S315200001301410024080B582B000AF0200FB1D1A7079
S315200001404020FFF7B1FF064AFB1D1B7813704020A5
S31520000150FFF7CCFFFFF75CFFC046BD4602B080BD6F
S315200001601510024080B582B000AF4020FFF79CFFFB
S31520000170FFF74EFFFFF74CFF064AFB1D12781A7059
S315200001804020FFF7B3FFFB1D1B781800BD4602B0C9
S3152000019080BDC0461110024090B583B000AF0B4B16
S315200001A00B4A1A600220FFF77FFF0120FFF79EFF10
S315200001B0FC1DFFF7D7FF03002370044B054A1A6086
S315200001C0FB1D1B781800BD4603B090BD00100240F1
S315200001D0555500005555555590B583B000AF0B4B7E
S315200001E00B4A1A600120FFF75FFF0220FFF75CFF32
S315200001F0FC1DFFF7B7FF03002370044B054A1A6066
S31520000200FB1D1B781800BD4603B090BD00100240B0
S31520000210555500005555555580B582B000AF0200A2
S31520000220FB1D1A700120FFF761FF0220FFF75EFF1A
S31520000230FB1D1B781800FFF77DFFC046BD4602B0A8
S3152000024080BD80B582B000AF0200FB1D1A70012070
S31520000250FFF72AFF0220FFF749FFFB1D1B78180036
S31520000260FFF768FFC046BD4602B080BD80B582B0AC
S3152000027000AF0200FB1D1A70C046FFF78DFF03007A
S315200002801A0080231340802BF7D00820FFF7E2FEC8
S31520000290FB1D1B781800FFF7BFFFC046BD4602B006
S315200002A080BD80B582B000AF0200FB1D1A70082009
S315200002B0FFF7D0FEFB1D1B781800FFF7C2FF2B208F
S315200002C0FFF7C8FEC046C046BD4602B080BD80B519
S315200002D000AF3820FFF7CAFF2720FFF7BBFEC04636
S315200002E0BD4680BD80B500AF0E20FFF7BFFF27209B
S315200002F0FFF7B0FEC046BD4680BD80B500AF0120E9
S31520000300FFF7B4FF0220FFF7BBFEC046BD4680BD07
S3152000031080B500AF0420FFF7A9FFC046BD4680BDCB
S3152000032080B500AFFFF7D3FFFFF7DCFFFFF7E5FF50
S31520000330FFF7EEFFC046BD4680BD80B500AF034B3C
S31520000340034A1A60C046BD4680BDC0460010024022
S315200003505555000080B584B000AF786039607B6861
S31520000360013BFB603B68022B02D1FB684033FB60FC
S31520000370FB685BB28022524213435BB2DBB21800A9
S31520000380FFF74AFF2720FFF765FEC046BD4604B0AB
S3152000039080BDB0B58CB000AF786039601C243B19A5
S315200003A01D4A23CA23C312781A700C23FB181B4A32
S315200003B023CA23C31188198092789A70FFF7BDFF4C
S315200003C0FFF7AEFF01210120FFF7C4FF3B19FB62B7
S315200003D006E0FB6A5A1CFA621B781800FFF761FFD9
S315200003E0FB6A1B78002BF4D102210120FFF7B2FF14
S315200003F00C23FB18FB6206E0FB6A5A1CFA621B7888
S315200004001800FFF74EFFFB6A1B78002BF4D1002360
S315200004101800BD460CB0B0BD2004002030040020DA
S31520000420416C66616E756D657269736B00000000C4
S31520000430446973706C6179202D2074657374000093
S70520000000DA
