S01500002E2F44656275672F6B65797061642E733139EE
S315200000000248854600F0DAF8FEE7C04600C0012027
S3152000001080B500AF054B064A1A60064B00221A80AF
S31520000020054B064A1A60C046BD4680BD000C0240FC
S3152000003055550055040C02400C0C02400000AA55F0
S3152000004080B582B000AF0200FB1D1A70FB1D1B7825
S31520000050022B0CD002DC012B05D014E0032B0AD096
S31520000060042B0CD00FE00B4B10221A700EE0094B1C
S3152000007020221A700AE0074B40221A7006E0054B30
S3152000008080221A7002E0034B00221A70C046BD4639
S3152000009002B080BD150C024080B582B000AF124A76
S315200000A0FB1D12781A70FB1D1B780822134001D005
S315200000B0042315E0FB1D1B780422134001D00323E3
S315200000C00EE0FB1D1B780222134001D0022307E01D
S315200000D0FB1D1B780122134001D0012300E00023E1
S315200000E01800BD4602B080BD110C0240B0B586B0E6
S315200000F000AF3B1D1E4A13CA13C312681A6017238A
S31520000100FB1801221A7025E01723FB181B7818000C
S31520000110FFF796FF16257C19FFF7BEFF0300237015
S315200001207B191B78002B0FD00020FFF789FF1723A0
S31520000130FB181B78013B9A001623FB181B78013B02
S31520000140D3183A1DD35C0EE017217B181A787B183A
S3152000015001321A701723FB181B78042BD4D90020E0
S31520000160FFF76EFFFF231800BD4606B0B0BDC046A0
S31520000170DC01002090B587B000AF0200FB1D1A708D
S315200001800823FB180B4A13CA13C312681A60FB1DF7
S315200001901B780F2B07D8FB1D1B7807490822BA1896
S315200001A0D35C0B7002E0044B00221A70C046BD4699
S315200001B007B090BDEC010020140C024080B582B03F
S315200001C000AFFB1D0A221A70FFF722FFFFF78EFFF2
S315200001D003001800FFF7CEFFF8E7C0460102030A26
S315200001E00405060B0708090C0E000F0D3F065B4F92
S311200001F0666D7D077F6F777C395E797124
S70520000000DA
