S01A00002E2F44656275672F7379737469636B5F6972712E733139B2
S315200000000248854600F06EF8FEE7C04600C0012093
S3152000001080B500AF084B00221A60084B00221A60F8
S31520000020074BA7221A60074B00221A60034B0722B0
S315200000301A60C046BD4680BD2401002010E000E0C5
S3152000004014E000E018E000E080B582B000AF7860F0
S315200000507B68002B08D07A68054B1A60054B002276
S315200000601A60FFF7D5FF00E0C046BD4602B080BD4E
S31520000070280100202401002080B500AF0A4B002271
S315200000801A600A4B1B685A1E084B1A60074B1B68DE
S31520000090002B02DDFFF7BCFF02E0054B01221A60B0
S315200000A0C046BD4680BDC04610E000E028010020C5
S315200000B02401002080B500AF054B064A1A60064B86
S315200000C000221A80054B064A1A60C046BD4680BDEE
S315200000D0000C024055550000040C02403CC0012093
S315200000E07900002080B500AFFFF7E4FF0A4B00221D
S315200000F01A700A4B1800FFF7A7FF074BFF221A704A
S31520000100074B1B68002B00D1FAE7C046024B0022A2
S315200001101A70C046BD4680BD140C024040420F00F6
S3112000012024010020000000000000000068
S70520000000DA
