S01300002E2F44656275672F6C6162352E7331390A
S315200000000248854600F0A8F9FEE7C04600C0012058
S3152000001080B582B000AF0200FB1D1A70FB1D1B7855
S31520000020022B0CD002DC012B05D014E0032B0AD0C6
S31520000030042B0CD00FE00B4B10225A750EE0094B07
S3152000004020225A750AE0074B40225A7506E0054BD6
S3152000005080225A7502E0034B00225A75C046BD46DF
S3152000006002B080BD000C0240B0B586B000AF214A78
S315200000701623FB18527C1A703B1D1F4A13CA13C342
S3152000008012681A601723FB1801221A7025E017231D
S31520000090FB181B781800FFF7BBFF15257C19FFF707
S315200000A0E3FF030023707B191B78002B0FD0002061
S315200000B0FFF7AEFF1723FB181B78013B9A00152389
S315200000C0FB181B78013BD3183A1DD35C0EE0172191
S315200000D07B181A787B1801321A701723FB181B78A5
S315200000E0042BD4D90020FFF793FFFF231800BD4629
S315200000F006B0B0BD000C02407C0B0020B0B586B027
S3152000010000AF3B1D1E4A13CA13C312681A60172379
S31520000110FB1801221A7025E01723FB181B781800FC
S31520000120FFF776FF16257C19FFF79EFF0300237045
S315200001307B191B78002B0FD00020FFF769FF1723B0
S31520000140FB181B78013B9A001623FB181B78013BF2
S31520000150D3183A1DD35C0EE017217B181A787B182A
S3152000016001321A701723FB181B78042BD4D90020D0
S31520000170FFF74EFFFF231800BD4606B0B0BDC046B0
S315200001807C0B002080B500AF0A4B00221A600A4B78
S315200001901B685A1E084B1A60074B1B68002B02DD92
S315200001A000F062F802E0054B01221A60C046BD4607
S315200001B080BDC04610E000E01C0B0020200B002074
S315200001C080B500AF0C4B00221A600C4B29221A6016
S315200001D00B4B00221A60084B05221A60C046064BBC
S315200001E01A6880235B021340F9D0034B00221A6061
S315200001F0C046BD4680BDC04610E000E014E000E0E9
S3152000020018E000E080B500AFFFF7DAFFFFF7D8FF70
S31520000210C046BD4680BD80B582B000AF786007E09D
S31520000220FFF7CEFFFFF7CCFFFFF7CAFFFFF7C8FFA8
S315200002307B685A1E7A60002BF2D1C046BD4602B0BA
S3152000024080BD80B582B000AF786004E0FA239B00C1
S315200002501800FFF7E0FF7B685A1E7A60002BF5D165
S31520000260C046BD4602B080BD80B500AF084B002217
S315200002701A60084B00221A60074B084A1A60084B7E
S3152000028000221A60034B07221A60C046BD4680BD75
S31520000290200B002010E000E014E000E0FFC3226401
S315200002A018E000E080B582B000AF78607B68002B54
S315200002B008D07A68054B1A60054B00221A60FFF7B2
S315200002C0D3FF00E0C046BD4602B080BD1C0B002017
S315200002D0200B002080B500AF124B18221A60124B5B
S315200002E01A68114B8021C9010A431A600F4B104A24
S315200002F01A60104B104A1A60104B114A1A60114BA3
S31520000300114A1A600F4B00229A800E4B0F4ADA6070
S315200003100F4B00221A600F4B00221A60C046BD46C2
S3152000032080BDC046303802404438024008ED00E027
S3152000033000C001203CC001208501002000100240A1
S3152000034055555555000C0240555500000000AA553C
S31520000350200B0020180B002080B582B000AF204B68
S315200003607B60FFF7B7FF00F098FA00F0C1FA7B68D0
S31520000370DB697A68100098472820FFF762FFFFF7AD
S31520000380BDFE0200FB1C1A70FB1C1B78042B0FD031
S3152000039002DC022B14D022E0062B02D0082B17D029
S315200003A01DE07B681B6A786800220221984716E0C8
S315200003B07B681B6A022251427868002298470EE029
S315200003C07B681B6A0222524278680021984706E021
S315200003D07B681B6A7868022200219847C046C6E7D8
S315200003E0580B002080B584B000AFF860B9607A6001
S315200003F0FB68BA685A60FB687A689A60C046BD4650
S3152000040004B080BD80B584B000AF78600023FB6067
S315200004101CE07B68DA687B681968FB6804335B003C
S31520000420CB1804331B78D0187B681A697B68196847
S31520000430FB6804335B00CB1805331B78D3180122E5
S31520000440190000F081FAFB680133FB607B681B68AA
S315200004501B68FA689A42DCDBC046BD4604B080BD04
S3152000046080B584B000AF78600023FB601CE07B6819
S31520000470DA687B681968FB6804335B00CB180433A1
S315200004801B78D0187B681A697B681968FB68043367
S315200004905B00CB1805331B78D3180022190000F017
S315200004A053FAFB680133FB607B681B681B68FA689C
S315200004B09A42DCDBC046BD4604B080BD90B583B011
S315200004C000AF78607B68DB68762B09DD7B681C6A69
S315200004D07B689A68022359427B681800A0470BE084
S315200004E07B68DB68092B07DC7B681C6A7B689A685B
S315200004F07B6802211800A0477B681B69092B08DC52
S315200005007B681C6A7B6859687B6802221800A047B2
S315200005100CE07B681B69362B08DD7B681C6A7B68D0
S31520000520596802235A427B681800A0477B68180046
S31520000530FFF796FF7B68DA687B685B68D2187B6872
S31520000540DA607B681A697B689B68D2187B681A61B7
S315200005507B68DB68002B07DD7B68DA687B681B68B5
S315200005605B68D318802B04DD7B685B685A427B6806
S315200005705A607B681B69002B07DD7B681A697B68DC
S315200005801B689B68D318402B04DD7B689B685A4206
S315200005907B689A607B681800FFF734FFC046BD462B
S315200005A003B090BD80B582B000AF0200FB1D1A706B
S315200005B0094B1B7DDBB25AB2FB1D1B785BB20421B3
S315200005C08B435BB213435AB2034BD2B21A75C04661
S315200005D0BD4602B080BDC0460010024080B582B044
S315200005E000AF0200FB1D1A70084B1B7DDBB2FA1D03
S315200005F01278D243D2B21340DBB2044A04218B4391
S31520000600DBB21375C046BD4602B080BD0010024065
S3152000061080B582B000AF0200FB1D1A70FB1D1B784F
S31520000620082B0CD002DC002B05D01AE0102B0DD0A5
S31520000630182B12D015E01820FFF7D0FF14E0082061
S31520000640FFF7B0FF1020FFF7C9FF0DE01020FFF7DE
S31520000650A9FF0820FFF7C2FF06E01820FFF7A2FF38
S3152000066002E01820FFF7BAFFC046BD4602B080BDA3
S3152000067080B500AF4020FFF7B1FF124B124A1A6037
S315200006800120FFF7ABFF0220FFF78CFFFFF7BAFD33
S3152000069009E04020FFF786FFFFF7B4FD4020FFF773
S315200006A09DFFFFF7AFFD074B5B7CDBB25BB2002BF8
S315200006B0EFDB4020FFF776FF024B044A1A60C04664
S315200006C0BD4680BD00100240555500005555555574
S315200006D080B584B000AF0200FB1D1A704020FFF7E2
S315200006E07DFF1D4B1D4A1A600120FFF75BFF02208C
S315200006F0FFF758FFFB1D1B781800FFF789FFFFF750
S3152000070081FD4020FFF74EFFFFF77CFD124A0F23A5
S31520000710FB18527C1A704020FFF760FF0E4B104AE0
S315200007201A60FB1D1B78082B05D10820FFF770FFE8
S31520000730FFF79EFF08E0FB1D1B78102B04D110202D
S31520000740FFF766FFFFF794FF0F23FB181B781800AF
S31520000750BD4604B080BDC04600100240555500007D
S315200007605555555580B582B000AF0200FB1D1A7055
S31520000770BB1D0A1C1A701A4AFB1D1B785375BB1D1C
S315200007801B781800FFF744FFFFF73CFD4020FFF7DA
S3152000079009FFFFF737FD4020FFF720FFBB1D1B7821
S315200007A00822134005D00820FFF732FFFFF760FF2D
S315200007B009E0BB1D1B781022134004D01020FFF740
S315200007C027FFFFF755FF064B00225A754020FFF7FB
S315200007D0E9FE0020FFF71CFFC046BD4602B080BDE3
S315200007E00010024080B582B000AF0200FB1D1A70D7
S315200007F0BB1D0A1C1A704020FFF7F0FEBB1D1B789C
S315200008001800FFF705FF0120FFF7E8FE0220FFF79B
S31520000810E5FEBB1D1A78FB1D1B7811001800FFF79B
S31520000820A1FFC046BD4602B080BD80B582B000AFF4
S315200008300200FB1D1A70BB1D0A1C1A704020FFF710
S31520000840CDFEBB1D1B781800FFF7E2FE0120FFF747
S31520000850A9FE0220FFF7C2FEBB1D1A78FB1D1B78DE
S3152000086011001800FFF77EFFC046BD4602B080BDCE
S3152000087080B582B000AF0200FB1D1A70FB1D1B78ED
S315200008801800FFF725FFFB1D1B781800FFF720FF38
S3152000089003001800BD4602B080BD80B500AF4020E1
S315200008A0FFF780FE0A20FFF7B6FC7820FFF796FEBA
S315200008B01E20FFF7C6FC2020FFF774FE18213E20DD
S315200008C0FFF790FF18213F20FFF78CFF1821C0204B
S315200008D0FFF788FF18214020FFF784FF1821B82052
S315200008E0FFF780FF0020FFF793FEC046BD4680BD80
S315200008F080B582B000AF00237B601EE07B685BB2D0
S315200009004822524213435BB2DBB218211800FFF78C
S3152000091069FF18214020FFF765FF00233B6006E0B2
S3152000092018210020FFF781FF3B6801333B603B68BD
S315200009303F2BF5DD7B6801337B607B68072BDDDD94
S31520000940C046BD4602B080BDF0B585B000AF0400FC
S3152000095008001100FB1D221C1A70BB1D021C1A70F8
S315200009607B1D0A1C1A70FB1D1B78002B00D1CBE0C7
S31520000970FB1D1B78802B00D9C6E0BB1D1B78002BE6
S3152000098000D1C1E0BB1D1B78402B00D9BCE07B1DEC
S315200009901B78012B00D9B7E0BB1D1B78013B002B30
S315200009A000DA0733DB101A000C23FB181A70BB1D64
S315200009B01B78013B564A134004D5013B082252427C
S315200009C013430133072B2CD89A00524BD3181B689C
S315200009D09F460F23FB1801221A7022E00F23FB18D3
S315200009E002221A701DE00F23FB1804221A7018E049
S315200009F00F23FB1808221A7013E00F23FB1810226E
S31520000A001A700EE00F23FB1820221A7009E00F231C
S31520000A10FB1840221A7004E00F23FB1880221A705C
S31520000A20C0467B1D1B78002B05D10F22BB18BA1898
S31520000A301278D2431A70FB1D1B78402B0AD90E233D
S31520000A40FB1810221A700D23FB18FA1D1278413A52
S31520000A501A7009E00E23FB1808221A700D23FB18C2
S31520000A60FA1D1278013A1A700D26BB191B784022FE
S31520000A701343DAB20E257B191B7819001000FFF7F5
S31520000A80B1FE0C23FB181B78482252421343DAB2DC
S31520000A907B191B7819001000FFF7A4FE0B23FC1806
S31520000AA07B191B781800FFF7E3FE03002370BB19A0
S31520000AB01B7840221343DAB27B191B7819001000E9
S31520000AC0FFF790FE7B1D1B78012B09D10F22BB1847
S31520000AD0B9180B22BA18097812780A431A7008E056
S31520000AE00F22BB18BA180B217918127809780A40F8
S31520000AF01A700E23FB181A780F23FB181B78110087
S31520000B001800FFF792FE00E0C046BD4605B0F0BDD6
S31520000B10070000808C0B0020000000000000000071
S31520000B20000000000C00000004000000040000008B
S31520000B30000100020100010101020103020002017D
S31520000B400202020303020000000000000000000071
S31520000B500000000000000000240B00200000000020
S31520000B600200000001000000010000000504002032
S31520000B7061040020BD040020E50300200102030AD1
S31520000B800405060B0708090C0E000F0DD2090020DC
S31520000B90DC090020E6090020F0090020FA090020DF
S31120000BA0040A00200E0A0020180A00207B
S70520000000DA
