S01700002E2F44656275672F6175746F706F6E672E733139FD
S315200000000248854600F088FCFEE7C04600C0012075
S3152000001080B500AF054B064A1A60064B00221A80AF
S31520000020054B064A1A60C046BD4680BD000C0240FC
S3152000003055550055040C02400C0C02400000AA55F0
S3152000004080B582B000AF0200FB1D1A70FB1D1B7825
S31520000050022B0CD002DC012B05D014E0032B0AD096
S31520000060042B0CD00FE00B4B10221A700EE0094B1C
S3152000007020221A700AE0074B40221A7006E0054B30
S3152000008080221A7002E0034B00221A70C046BD4639
S3152000009002B080BD150C024080B582B000AF124A76
S315200000A0FB1D12781A70FB1D1B780822134001D005
S315200000B0042315E0FB1D1B780422134001D00323E3
S315200000C00EE0FB1D1B780222134001D0022307E01D
S315200000D0FB1D1B780122134001D0012300E00023E1
S315200000E01800BD4602B080BD110C0240B0B586B0E6
S315200000F000AF3B1D1E4A13CA13C312681A6017238A
S31520000100FB1801221A7025E01723FB181B7818000C
S31520000110FFF796FF16257C19FFF7BEFF0300237015
S315200001207B191B78002B0FD00020FFF789FF1723A0
S31520000130FB181B78013B9A001623FB181B78013B02
S31520000140D3183A1DD35C0EE017217B181A787B183A
S3152000015001321A701723FB181B78042BD4D90020E0
S31520000160FFF76EFFFF231800BD4606B0B0BDC046A0
S31520000170000A002080B500AFC046BD4680BD80B5D0
S3152000018000AFFFF7F7FFFFF7F5FFC046BD4680BD7E
S3152000019080B582B000AF7860C046BD4602B080BD53
S315200001A080B582B000AF7860C046BD4602B080BD43
S315200001B080B582B000AF0200FB1D1A70094B1B7878
S315200001C0DBB25AB2FB1D1B785BB204218B435BB2B8
S315200001D013435AB2034BD2B21A70C046BD4602B080
S315200001E080BDC0461410024080B582B000AF020028
S315200001F0FB1D1A70084B1B78DBB2FA1D1278D2430E
S31520000200D2B21340DBB2044A04218B43DBB2137013
S31520000210C046BD4602B080BD1410024080B582B0F3
S3152000022000AF0200FB1D1A70FB1D1B78082B0CD09B
S3152000023002DC002B05D019E0102B0DD0182B12D084
S3152000024014E01820FFF7D0FF13E00820FFF7B0FFD7
S315200002501020FFF7C9FF0CE01020FFF7A9FF0820A8
S31520000260FFF7C2FF05E01820FFF7A2FF1820FFF7CF
S31520000270BBFFC046BD4602B080BD80B500AF402062
S31520000280FFF7B2FF124B134A1A600120FFF7ACFFAB
S315200002900220FFF78DFFFFF772FF09E04020FFF7EE
S315200002A087FFFFF76CFF4020FFF79EFFFFF767FFF2
S315200002B0094B1B78DBB25BB2002BEFDB4020FFF74C
S315200002C077FF034B054A1A60C046BD4680BDC0462F
S315200002D00010024055550000111002405555555545
S315200002E080B584B000AF0200FB1D1A704020FFF7D6
S315200002F07BFF1D4B1D4A1A600120FFF759FF022084
S31520000300FFF756FFFB1D1B781800FFF787FFFFF747
S3152000031036FF4020FFF74CFFFFF731FF144A0F232B
S31520000320FB1812781A704020FFF75EFF0E4B114A19
S315200003301A60FB1D1B78082B05D10820FFF76EFFDE
S31520000340FFF79BFF08E0FB1D1B78102B04D1102024
S31520000350FFF764FFFFF791FF0F23FB181B781800A8
S31520000360BD4604B080BDC046001002405555000071
S31520000370111002405555555580B582B000AF020088
S31520000380FB1D1A70BB1D0A1C1A701A4AFB1D1B780E
S315200003901370BB1D1B781800FFF740FFFFF7EFFE19
S315200003A04020FFF705FFFFF7EAFE4020FFF71CFF7E
S315200003B0BB1D1B780822134005D00820FFF72EFF0F
S315200003C0FFF75BFF09E0BB1D1B781022134004D00A
S315200003D01020FFF723FFFFF750FF064B00221A706D
S315200003E04020FFF7E5FE0020FFF718FFC046BD4678
S315200003F002B080BD1510024080B582B000AF020069
S31520000400FB1D1A70BB1D0A1C1A704020FFF7ECFE5C
S31520000410BB1D1B781800FFF701FF0120FFF7E4FE44
S315200004200220FFF7E1FEBB1D1A78FB1D1B78110089
S315200004301800FFF7A1FFC046BD4602B080BD80B5BB
S3152000044082B000AF0200FB1D1A70BB1D0A1C1A7079
S315200004504020FFF7C9FEBB1D1B781800FFF7DEFE04
S315200004600120FFF7A5FE0220FFF7BEFEBB1D1A786E
S31520000470FB1D1B7811001800FFF77EFFC046BD4606
S3152000048002B080BD80B582B000AF0200FB1D1A709D
S31520000490FB1D1B781800FFF723FFFB1D1B78180098
S315200004A0FFF71EFF03001800BD4602B080BD80B5D1
S315200004B000AF034B034A1A60C046BD4680BDC04606
S315200004C0001002405555555580B500AF4020FFF726
S315200004D06FFE0A20FFF75CFE7820FFF785FE1E20C0
S315200004E0FFF75EFE2020FFF763FE18213E20FFF770
S315200004F083FF18213F20FFF77FFF1821C020FFF739
S315200005007BFF18214020FFF777FF1821B820FFF73F
S3152000051073FF0020FFF782FEC046BD4680BD80B532
S3152000052082B000AF00237B601EE07B685BB248226E
S31520000530524213435BB2DBB218211800FFF75CFF6F
S3152000054018214020FFF758FF00233B6006E01821C2
S315200005500020FFF774FF3B6801333B603B683F2B6D
S31520000560F5DD7B6801337B607B68072BDDDDC046CC
S31520000570BD4602B080BDF0B585B000AF04000800CE
S315200005801100FB1D221C1A70BB1D021C1A707B1D3C
S315200005900A1C1A70FB1D1B78002B00D1CBE0FB1D1B
S315200005A01B78802B00D9C6E0BB1D1B78002B00D101
S315200005B0C1E0BB1D1B78402B00D9BCE07B1D1B78FE
S315200005C0012B00D9B7E0BB1D1B78013B002B00DABD
S315200005D00733DB101A000C23FB181A70BB1D1B787F
S315200005E0013B574A134004D5013B0822524213438C
S315200005F00133072B2CD89A00524BD3181B689F46E1
S315200006000F23FB1801221A7022E00F23FB18022267
S315200006101A701DE00F23FB1804221A7018E00F230E
S31520000620FB1808221A7013E00F23FB1810221A70E9
S315200006300EE00F23FB1820221A7009E00F23FB1867
S3152000064040221A7004E00F23FB1880221A70C0463D
S315200006507B1D1B78002B05D10F22BB18BA181278E8
S31520000660D2431A70FB1D1B78402B0AD90E23FB1888
S3152000067010221A700D23FB18FA1D1278413A1A70AF
S3152000068009E00E23FB1808221A700D23FB18FA1D09
S315200006901278013A1A700D26BB191B784022134393
S315200006A0DAB20E257B191B7819001000FFF7A4FE7D
S315200006B00C23FB181B78482252421343DAB27B19CB
S315200006C01B7819001000FFF797FE0B23FC187B19E7
S315200006D01B781800FFF7D6FE03002370BB191B7882
S315200006E040221343DAB27B191B7819001000FFF75A
S315200006F083FE7B1D1B78012B09D10F22BB18B9184D
S315200007000B22BA18097812780A431A7008E00F22C9
S31520000710BB18BA180B217918127809780A401A7072
S315200007200E23FB181A780F23FB181B7811001800CC
S31520000730FFF785FE00E0C046BD4605B0F0BDC046C9
S3152000074007000080100A002080B584B000AFF86052
S31520000750B9607A60FB68BA685A60FB687A689A6002
S31520000760C046BD4604B080BD80B584B000AF786079
S315200007700023FB6020E07B68DB68DAB27B681968BF
S31520000780FB6804335B00CB1804331B78D318D8B22C
S315200007907B681B69DAB27B681968FB6804335B00E7
S315200007A0CB1805331B78D318DBB201221900FFF7CB
S315200007B0E2FEFB680133FB607B681B681B68FA68F6
S315200007C09A42D8DBC046BD4604B080BD80B584B011
S315200007D000AF78600023FB6020E07B68DB68DAB23C
S315200007E07B681968FB6804335B00CB1804331B78DD
S315200007F0D318D8B27B681B69DAB27B681968FB68A4
S3152000080004335B00CB1805331B78D318DBB20022E8
S315200008101900FFF7B0FEFB680133FB607B681B689D
S315200008201B68FA689A42D8DBC046BD4604B080BD34
S3152000083090B583B000AF78607B68DB68762B09DDE6
S315200008407B681C6A7B689A68022359427B68180079
S31520000850A0470BE07B68DB68092B07DC7B681C6AFA
S315200008607B689A687B6802211800A0477B681B6911
S31520000870092B08DC7B681C6A7B6859687B68022226
S315200008801800A0470CE07B681B69362B08DD7B68C7
S315200008901C6A7B68596802235A427B681800A04765
S315200008A07B681800FFF792FF7B68DA687B685B68D5
S315200008B0D2187B68DA607B681A697B689B68D218D5
S315200008C07B681A617B68DB68002B07DD7B68DA684A
S315200008D07B681B685B68D318802B04DD7B685B68AC
S315200008E05A427B685A607B681B69002B07DD7B6850
S315200008F01A697B681B689B68D318402B04DD7B68CC
S315200009009B685A427B689A607B681800FFF72CFF29
S31520000910C046BD4603B090BD80B582B000AF214B26
S315200009207B60FFF775FBFFF7C2FDFFF7CDFDFFF7F5
S31520000930F6FD7B68DB697A68100098472820FFF768
S315200009402FFCFFF7D3FB0200FB1C1A70FB1C1B7845
S31520000950042B0FD002DC022B14D022E0062B02D06F
S31520000960082B17D01DE07B681B6A786800220221BD
S31520000970984716E07B681B6A02225142786800225B
S3152000098098470EE07B681B6A022252427868002153
S31520000990984706E07B681B6A786802220021984700
S315200009A0C046C6E7DC0900200C0000000400000059
S315200009B00400000000010002010001010102010300
S315200009C002000201020202030302000000000000EE
S315200009D0000000000000000000000000A809002020
S315200009E000000000000000000100000001000000DF
S315200009F069070020CD070020310800204907002084
S31520000A000102030A0405060B0708090C0E000F0D48
S31520000A10000600200A060020140600201E060020DC
S31520000A2028060020320600203C060020460600202C
S70520000000DA
